:020000020000FC
:0200000045C0F9
:1000040062D0189570D0189580D0189590D0189516
:10008C000FEF0DBF00E10EBF40E00FEF07BB00E02C
:10009C0008BB042B08BB00E001BB0FEF02BB0AEA54
:1000AC0000936A000FE009BF09E603BF05BD042FEA
:1000BC0001BF03BD00E608BB14E17894FFCF0F939A
:1000CC000FB70F9340E008B3007F042B08BB3BD065
:1000DC0049D00FE008BF0F910FBF0F9108950F93F8
:1000EC000FB70F93403031F04A9508B3007F042BC3
:1000FC0008BB29D037D00FE008BF0F910FBF0F916D
:10010C0008950F930FB70F934F3031F0439508B309
:10011C00007F042B08BB17D025D00FE008BF0F9130
:10012C000FBF0F9108950F930FB70F934FE008B3C4
:10013C00007F042B08BB07D015D00FE008BF0F9130
:10014C000FBF0F9108950F930FB70F930F921F923C
:10015C0001E1049F01BE03BC1F900F900F910FBFD4
:10016C000F9108951F932F933F9330EE2DEE2A9508
:10017C00F1F73A95D9F71A95C1F73F912F911F9145
:02018C000895D4
:00000001FF
