:020000020000FC
:0200000045C0F9
:10008C0000E10EBF0FEF0DBF2224F2E0EAED059167
:10009C001491F2E0ECED25913491A0E1B1E0C2E1D4
:1000AC00D1E0F1E0E0E20D931C932993388349D021
:1000BC000000F2E0EEED05911491F2E0E0EE2591F6
:1000CC003491A0E3B1E0C2E3D1E0F1E0E0E40D93C0
:1000DC001C932993388347D00000F2E0E2EE05919F
:1000EC0015912491F2E0E6EE359145915491A0E5FD
:1000FC00B1E0C3E5D1E0F1E0E0E60D931D932D9363
:10010C003993499359933ED00000F2E0EAEE059101
:10011C001491F1E0E0E701931083F2E0ECEE05912D
:10012C001491F1E0E2E701931083F2E0EEEE059119
:10013C001491F1E0E4E70193108300004ED000002D
:10014C00FFCFA0E1B1E0C2E1D1E0F1E0E0E20D913E
:10015C001C9129913881020F0193131F119344278D
:10016C00421D40830895A0E3B1E0C2E3D1E0F1E089
:10017C00E0E40D911C9129913881021B0193130B22
:10018C0011930895A0E5B1E0C3E5D1E0F1E0E0E61C
:10019C0078E10991199129913327442755275795CF
:1001AC004795379527951795079540F46D91360F20
:1001BC006D91461F6D91561FA0E5B1E07A9579F7C8
:1001CC005795479537952795179507950193119353
:1001DC0021933193419351930895F1E0E0E701911C
:1001EC001081F1E0E0E301931083F1E0E2E701918B
:1001FC001081F1E0E2E301931083B5DFF1E0E0E47C
:10020C0001911081F1E0E0E101931083F1E0E4E76A
:10021C0001911081F1E0E2E10193108392DFF1E0B2
:10022C00E0E2019111912081F1E0E0E5019311935D
:10023C002083F1E0E3E5019311932083A3DFF1E048
:10024C00E0E6019111912191319141915081F1E0C0
:10025C00E0E80193119321933193419350830895D6
:10026C003F924F921F920F922F92BF93AF93DF93B7
:10027C00CF93FF93EF931F932F932224C2E0D1E0EF
:10028C00E4E0F1E012E0A0E0B1E022E03D90488033
:10029C00349C31904190030C141C3080321C308201
:1002AC001292029231962A9589F7319721961A95D6
:1002BC0051F72F911F91EF91FF91CF91DF91AF915A
:1002CC00BF912F900F901F904F903F900895FFA2D9
:1002DC0077F48AF0CD4BFFFFFF00FFFFFF0051FDCD
:0402EC00FF1EFFFFF3
:00000001FF
