:020000020000FC
:0200000045C0F9
:080004008FD018959DD01895CE
:040078002DD01895DA
:10008C0000E10EBF0FEF0DBF0FEF07BB00E008BB89
:10009C0004E001BB03EF02BB02E000939B0000E90C
:1000AC0000939A000EE800939D0003E000939800E3
:1000BC0000E4009399000AE000936A0003E009BF92
:1000CC00789434E610E0FFCF0F9300919C00213020
:1000DC0031F00A3211F421E01DC020E01BC0001FDA
:1000EC0020E0003919F410E918BB14C0003019F4E1
:1000FC0010E018BB0FC0003619F410E618BB0AC08C
:10010C00003419F410E418BB05C0003219F410E2E5
:10011C0018BB00C00F9108950F930FB70F9300E019
:10012C0008BB1AD000E208BB17D003E008BF18BB0D
:10013C000F910FBF0F9108950F930FB70F9300E01E
:10014C0008BB0AD000E408BB07D003E008BF18BB0B
:10015C000F910FBF0F9108953F934F935F9350EE04
:10016C004DEE4A95F1F75A95D9F73A95C1F75F914B
:06017C004F913F91089530
:00000001FF
