:020000020000FC
:0200000045C0F9
:0400780026D01895E1
:10008C0000E10EBF0FEF0DBF0FEF07BB00E008BB89
:10009C0004E001BB03EF02BB02E000939B0000E90C
:1000AC0000939A000EE800939D0003E000939800E3
:1000BC0000E4009399007894FFCF0F931F93009165
:1000CC009C00213031F00A3211F421E01DC020E0F7
:1000DC001BC0001F20E0003919F410E918BB14C034
:1000EC00003019F410E018BB0FC0003619F410E6FC
:1000FC0018BB0AC0003419F410E418BB05C0003258
:0E010C0019F410E218BB00C01F910F91089566
:00000001FF
