:020000020000FC
:0200000045C0F9
:080004008FD018959ED01895CD
:04003800BDD018958A
:0400780038D01895CF
:10008C0000E10EBF0FEF0DBF0FEF07BB00E008BB89
:10009C0004E001BB03EF02BB02E000939B0008E904
:1000AC0000939A000EE800939D0003E000939800E3
:1000BC0000E40093990081E009E703BF05BD082F18
:1000CC0001BF03BD04E007BF0AE000936A0003E030
:1000DC0009BF789434E610E020E060E0FFCF0F9386
:1000EC0000919C00053511F448D014C0213021F04A
:1000FC000A3281F421E00EC020E0083F19F49CD0B4
:10010C000C949000000F003921F0102F182B18BB05
:10011C0001C07DD00F9108950F930FB70F9300E09E
:10012C0009BF00E000939A0000E0082B08BB7FE7B2
:10013C0063D00F910FBF0F9108950F930FB70F93CB
:10014C0000E009BF00E000939A0000E0082B08BB18
:10015C0075E452D00F910FBF0F9108953F934F93B9
:10016C005F9350EE4DEE4A95F1F75A95D9F73A95C3
:10017C00C1F75F914F913F9108950F9300E908BB30
:10018C00F8946395633071F0E9DFE8DFE7DFE6DFD1
:10019C00E5DF0FEF08BF00919B00006E00939B0002
:1001AC00789418BB0F9108950F930FB70F937F3767
:1001BC0019F0753439F00CC000E2082B08BB71E85B
:1001CC001BD016C000E4082B08BB71E815D010C07A
:1001DC000FEF08BF00919B00006800939B0003E0A9
:1001EC0009BF08E900939A0000E00EBD182B18BB5C
:1001FC000F910FBF0F9108950F9300E00FBD04E016
:10020C000EBD0BE00DBD0CED0CBD0F9108950F93C1
:10021C000FB70F93803031F08A9508B3007F082B0D
:10022C0008BB1FD03F9332E399DF3F910FE008BF2B
:10023C000F910FBF0F9108950F930FB70F938F303E
:10024C0031F0839508B3007F082B08BB0AD03F938D
:10025C0032E384DF3F910FE008BF0F910FBF0F9186
:10026C0008950F930FB70F930F921F9201E1089F00
:10027C0001BE03BC1F900F900F910FBF0F910895FB
:00000001FF
