:020000020000FC
:0200000045C0F9
:10008C0000E10EBF0FEF0DBF0FEF07BB00E008BB89
:10009C0008E001BB03EF02BB02E000939B0008E009
:1000AC0000939A000EE000939D0003E000939800EB
:1000BC0000E4009399002AE200B3009500FF04C00D
:1000CC0018EC21D018BB1EC001FF04C010E81BD0D7
:1000DC0018BB18C004FF04C010EB15D018BB12C01D
:1000EC0005FF04C010EA0FD018BB0CC006FF04C0FB
:1000FC0010E909D018BB06C007FF04C018EF03D0E5
:10010C0018BB00C0D9CF0F9300919B0005FFFCCF0B
:10011C0020939C0000919B0005FFFCCF10939C004A
:04012C000F91089592
:00000001FF
