:020000020000FC
:0200000045C0F9
:0800040082D0189590D01895E8
:040078002FD01895D8
:10008C0000E10EBF0FEF0DBF0FEF07BB00E008BB89
:10009C0004E001BB03EF02BB02E000939B0008E904
:1000AC0000939A000EE800939D0003E000939800E3
:1000BC0000E4009399000AE000936A0003E009BF92
:1000CC00789434E610E020E060E0FFCF0F930091CD
:1000DC009C00053511F454D010C0213021F00A32A7
:1000EC0061F421E00AC020E0083F19F437D00C94E9
:1000FC008300000F102F18BB00C00F9108950F93B1
:10010C000FB70F9300E008BB1AD000E208BB17D062
:10011C0003E008BF18BB0F910FBF0F9108950F9309
:10012C000FB70F9300E008BB0AD000E408BB07D060
:10013C0003E008BF18BB0F910FBF0F9108953F93B9
:10014C004F935F9350EE4DEE4A95F1F75A95D9F7D0
:10015C003A95C1F75F914F913F9108950F93F894A1
:10016C0000919B0005FFFCCF05E500939C00E7DFA9
:10017C0000919B00006E00939B0078940F91089562
:10018C000F9300E908BBF8946395633071F0D7DFE7
:10019C00D6DFD5DFD4DFD3DF0FEF08BF00919B0094
:0E01AC00006E00939B00789418BB0F9108958D
:00000001FF
