:020000020000FC
:0200000045C0F9
:0800040059D0189566D018953B
:10008C0018EC0FEF0DBF00E10EBF0FEF07BB00E048
:10009C0008BB0CEF01BB0FEF02BB0AE000936A0038
:1000AC0003E009BF789403E008BBFDCF0F930FB7B3
:1000BC000F9300E008BB18D001E008BB15D00F91DE
:1000CC000FBF0F9103E008BF08950F930FB70F9365
:1000DC0000E008BB09D002E008BB06D00F910FBFAF
:1000EC000F9103E008BF08951F932F933F9330EEB9
:1000FC002DEE2A95F1F73A95D9F71A95C1F73F915C
:06010C002F911F910895E0
:00000001FF
