:020000020000FC
:0200000045C0F9
:080004005AD0189576D018952A
:10008C000FEF0DBF00E10EBF0FEF07BB00E008BB89
:10009C000CEF01BB0FEF02BB40E050E00AE0009315
:1000AC006A0003E009BF789403E008BBFDCF1F93FF
:1000BC000F930FB70F931AE0523041F052E0439573
:1000CC00453009F005C040E03DD008C01EE140E0DD
:1000DC0000E008BB28D001E008BB25D00F910FBF72
:1000EC000F911F9103E008BF08951F930F930FB753
:1000FC000F931AE0513041F051E04395453009F02F
:10010C0005C040E01FD008C01EE140E000E008BB85
:10011C000AD002E008BB07D00F910FBF0F911F91BF
:10012C0003E008BF08951F932F933F9330EE2DEEFD
:10013C002A95F1F73A95D9F71A95C1F73F912F9176
:10014C001F9108950F931F9300E008BB1AE0EBDF9B
:0E015C0002E008BB1FEFE7DF1F910F9108952F
:00000001FF
